{
  "address": "0xe7f1725E7734CE288F8367e1Bb143E90bb3F0512",
  "abi": [
    {
      "inputs": [
        {
          "internalType": "address",
          "name": "priceFeedAddress",
          "type": "address"
        }
      ],
      "stateMutability": "nonpayable",
      "type": "constructor"
    },
    {
      "inputs": [],
      "name": "NotOwner",
      "type": "error"
    },
    {
      "stateMutability": "payable",
      "type": "fallback"
    },
    {
      "inputs": [],
      "name": "MINIMUM_USD",
      "outputs": [
        {
          "internalType": "uint256",
          "name": "",
          "type": "uint256"
        }
      ],
      "stateMutability": "view",
      "type": "function"
    },
    {
      "inputs": [],
      "name": "fund",
      "outputs": [],
      "stateMutability": "payable",
      "type": "function"
    },
    {
      "inputs": [
        {
          "internalType": "uint256",
          "name": "",
          "type": "uint256"
        }
      ],
      "name": "funders",
      "outputs": [
        {
          "internalType": "address",
          "name": "",
          "type": "address"
        }
      ],
      "stateMutability": "view",
      "type": "function"
    },
    {
      "inputs": [],
      "name": "i_owner",
      "outputs": [
        {
          "internalType": "address",
          "name": "",
          "type": "address"
        }
      ],
      "stateMutability": "view",
      "type": "function"
    },
    {
      "inputs": [],
      "name": "priceFeed",
      "outputs": [
        {
          "internalType": "contract AggregatorV3Interface",
          "name": "",
          "type": "address"
        }
      ],
      "stateMutability": "view",
      "type": "function"
    },
    {
      "inputs": [],
      "name": "withdraw",
      "outputs": [],
      "stateMutability": "nonpayable",
      "type": "function"
    },
    {
      "stateMutability": "payable",
      "type": "receive"
    }
  ],
  "transactionHash": "0xaf61dd43f4b8b59b1eb50acafeb662476e9478fd8524d478b491eb15ded3adbe",
  "args": [
    "0x5FbDB2315678afecb367f032d93F642f64180aa3"
  ],
  "numDeployments": 1,
  "solcInputHash": "3dab1a3ee4758d8e467f6aaeed456b8f",
  "bytecode": "0x60a060405234801561001057600080fd5b50604051610e99380380610e99833981810160405281019061003291906100c5565b3373ffffffffffffffffffffffffffffffffffffffff1660808173ffffffffffffffffffffffffffffffffffffffff1660601b8152505080600260006101000a81548173ffffffffffffffffffffffffffffffffffffffff021916908373ffffffffffffffffffffffffffffffffffffffff16021790555050610140565b6000815190506100bf81610129565b92915050565b6000602082840312156100db576100da610124565b5b60006100e9848285016100b0565b91505092915050565b60006100fd82610104565b9050919050565b600073ffffffffffffffffffffffffffffffffffffffff82169050919050565b600080fd5b610132816100f2565b811461013d57600080fd5b50565b60805160601c610d346101656000396000818161027b01526104ee0152610d346000f3fe6080604052600436106100595760003560e01c80633ccfd60b146100725780636b69a59214610089578063741bef1a146100b4578063b60d4288146100df578063dba6335f146100e9578063dc0d3dff1461011457610068565b3661006857610066610151565b005b610070610151565b005b34801561007e57600080fd5b50610087610279565b005b34801561009557600080fd5b5061009e6104b9565b6040516100ab91906108ef565b60405180910390f35b3480156100c057600080fd5b506100c96104c6565b6040516100d69190610894565b60405180910390f35b6100e7610151565b005b3480156100f557600080fd5b506100fe6104ec565b60405161010b9190610879565b60405180910390f35b34801561012057600080fd5b5061013b60048036038101906101369190610726565b610510565b6040516101489190610879565b60405180910390f35b6802b5e3af16b1880000610190600260009054906101000a900473ffffffffffffffffffffffffffffffffffffffff163461054f90919063ffffffff16565b116101d0576040517f08c379a00000000000000000000000000000000000000000000000000000000081526004016101c7906108cf565b60405180910390fd5b6000339080600181540180825580915050600190039060005260206000200160009091909190916101000a81548173ffffffffffffffffffffffffffffffffffffffff021916908373ffffffffffffffffffffffffffffffffffffffff16021790555034600160003373ffffffffffffffffffffffffffffffffffffffff1673ffffffffffffffffffffffffffffffffffffffff16815260200190815260200160002081905550565b7f000000000000000000000000000000000000000000000000000000000000000073ffffffffffffffffffffffffffffffffffffffff163373ffffffffffffffffffffffffffffffffffffffff16146102fe576040517f30cd747100000000000000000000000000000000000000000000000000000000815260040160405180910390fd5b60005b6000805490508110156103a957600080828154811061032357610322610c01565b5b9060005260206000200160009054906101000a900473ffffffffffffffffffffffffffffffffffffffff1690506000600160008373ffffffffffffffffffffffffffffffffffffffff1673ffffffffffffffffffffffffffffffffffffffff168152602001908152602001600020819055505080806103a190610b5a565b915050610301565b50600067ffffffffffffffff8111156103c5576103c4610c30565b5b6040519080825280602002602001820160405280156103f35781602001602082028036833780820191505090505b506000908051906020019061040992919061062b565b5060003373ffffffffffffffffffffffffffffffffffffffff164760405161043090610864565b60006040518083038185875af1925050503d806000811461046d576040519150601f19603f3d011682016040523d82523d6000602084013e610472565b606091505b50509050806104b6576040517f08c379a00000000000000000000000000000000000000000000000000000000081526004016104ad906108af565b60405180910390fd5b50565b6802b5e3af16b188000081565b600260009054906101000a900473ffffffffffffffffffffffffffffffffffffffff1681565b7f000000000000000000000000000000000000000000000000000000000000000081565b6000818154811061052057600080fd5b906000526020600020016000915054906101000a900473ffffffffffffffffffffffffffffffffffffffff1681565b60008061055b8361058b565b90506000670de0b6b3a764000082866105749190610a6e565b61057e9190610926565b9050809250505092915050565b6000808273ffffffffffffffffffffffffffffffffffffffff1663feaf968c6040518163ffffffff1660e01b815260040160a06040518083038186803b1580156105d457600080fd5b505afa1580156105e8573d6000803e3d6000fd5b505050506040513d601f19601f8201168201806040525081019061060c9190610753565b5050509150506402540be400816106239190610957565b915050919050565b8280548282559060005260206000209081019282156106a4579160200282015b828111156106a35782518260006101000a81548173ffffffffffffffffffffffffffffffffffffffff021916908373ffffffffffffffffffffffffffffffffffffffff1602179055509160200191906001019061064b565b5b5090506106b191906106b5565b5090565b5b808211156106ce5760008160009055506001016106b6565b5090565b6000815190506106e181610cb9565b92915050565b6000813590506106f681610cd0565b92915050565b60008151905061070b81610cd0565b92915050565b60008151905061072081610ce7565b92915050565b60006020828403121561073c5761073b610c5f565b5b600061074a848285016106e7565b91505092915050565b600080600080600060a0868803121561076f5761076e610c5f565b5b600061077d88828901610711565b955050602061078e888289016106d2565b945050604061079f888289016106fc565b93505060606107b0888289016106fc565b92505060806107c188828901610711565b9150509295509295909350565b6107d781610ac8565b82525050565b6107e681610b24565b82525050565b60006107f9601483610915565b915061080482610c64565b602082019050919050565b600061081c600783610915565b915061082782610c8d565b602082019050919050565b600061083f60008361090a565b915061084a82610cb6565b600082019050919050565b61085e81610b04565b82525050565b600061086f82610832565b9150819050919050565b600060208201905061088e60008301846107ce565b92915050565b60006020820190506108a960008301846107dd565b92915050565b600060208201905081810360008301526108c8816107ec565b9050919050565b600060208201905081810360008301526108e88161080f565b9050919050565b60006020820190506109046000830184610855565b92915050565b600081905092915050565b600082825260208201905092915050565b600061093182610b04565b915061093c83610b04565b92508261094c5761094b610bd2565b5b828204905092915050565b600061096282610ada565b915061096d83610ada565b9250827f7fffffffffffffffffffffffffffffffffffffffffffffffffffffffffffffff04821160008413600084131616156109ac576109ab610ba3565b5b817f800000000000000000000000000000000000000000000000000000000000000005831260008412600084131616156109e9576109e8610ba3565b5b827f80000000000000000000000000000000000000000000000000000000000000000582126000841360008412161615610a2657610a25610ba3565b5b827f7fffffffffffffffffffffffffffffffffffffffffffffffffffffffffffffff0582126000841260008412161615610a6357610a62610ba3565b5b828202905092915050565b6000610a7982610b04565b9150610a8483610b04565b9250817fffffffffffffffffffffffffffffffffffffffffffffffffffffffffffffffff0483118215151615610abd57610abc610ba3565b5b828202905092915050565b6000610ad382610ae4565b9050919050565b6000819050919050565b600073ffffffffffffffffffffffffffffffffffffffff82169050919050565b6000819050919050565b600069ffffffffffffffffffff82169050919050565b6000610b2f82610b36565b9050919050565b6000610b4182610b48565b9050919050565b6000610b5382610ae4565b9050919050565b6000610b6582610b04565b91507fffffffffffffffffffffffffffffffffffffffffffffffffffffffffffffffff821415610b9857610b97610ba3565b5b600182019050919050565b7f4e487b7100000000000000000000000000000000000000000000000000000000600052601160045260246000fd5b7f4e487b7100000000000000000000000000000000000000000000000000000000600052601260045260246000fd5b7f4e487b7100000000000000000000000000000000000000000000000000000000600052603260045260246000fd5b7f4e487b7100000000000000000000000000000000000000000000000000000000600052604160045260246000fd5b600080fd5b7f4661696c656420746f2073656e64204574686572000000000000000000000000600082015250565b7f746f6f206c6f7700000000000000000000000000000000000000000000000000600082015250565b50565b610cc281610ada565b8114610ccd57600080fd5b50565b610cd981610b04565b8114610ce457600080fd5b50565b610cf081610b0e565b8114610cfb57600080fd5b5056fea2646970667358221220354c9fc7a3c8efda01afde77f997b916ff9a688b2268150f79c118e614f8350764736f6c63430008070033",
  "devdoc": {
    "kind": "dev",
    "methods": {},
    "version": 1
  },
  "userdoc": {
    "kind": "user",
    "methods": {},
    "version": 1
  },
  "storageLayout": {
    "storage": [
      {
        "astId": 63,
        "contract": "contracts/FundMe.sol:FundMe",
        "label": "funders",
        "offset": 0,
        "slot": "0",
        "type": "t_array(t_address)dyn_storage"
      },
      {
        "astId": 67,
        "contract": "contracts/FundMe.sol:FundMe",
        "label": "funderToAmount",
        "offset": 0,
        "slot": "1",
        "type": "t_mapping(t_address,t_uint256)"
      },
      {
        "astId": 70,
        "contract": "contracts/FundMe.sol:FundMe",
        "label": "priceFeed",
        "offset": 0,
        "slot": "2",
        "type": "t_contract(AggregatorV3Interface)45"
      }
    ],
    "types": {
      "t_address": {
        "encoding": "inplace",
        "label": "address",
        "numberOfBytes": "20"
      },
      "t_array(t_address)dyn_storage": {
        "base": "t_address",
        "encoding": "dynamic_array",
        "label": "address[]",
        "numberOfBytes": "32"
      },
      "t_contract(AggregatorV3Interface)45": {
        "encoding": "inplace",
        "label": "contract AggregatorV3Interface",
        "numberOfBytes": "20"
      },
      "t_mapping(t_address,t_uint256)": {
        "encoding": "mapping",
        "key": "t_address",
        "label": "mapping(address => uint256)",
        "numberOfBytes": "32",
        "value": "t_uint256"
      },
      "t_uint256": {
        "encoding": "inplace",
        "label": "uint256",
        "numberOfBytes": "32"
      }
    }
  }
}